{
  "_format": "hh-sol-artifact-1",
  "contractName": "FundingHub",
  "sourceName": "src/contracts/FundingHub.sol",
  "abi": [
    {
      "inputs": [
        {
          "internalType": "uint256",
          "name": "_projectFee",
          "type": "uint256"
        }
      ],
      "stateMutability": "nonpayable",
      "type": "constructor"
    },
    {
      "anonymous": false,
      "inputs": [
        {
          "indexed": false,
          "internalType": "uint256",
          "name": "id",
          "type": "uint256"
        },
        {
          "indexed": false,
          "internalType": "string",
          "name": "actionType",
          "type": "string"
        },
        {
          "indexed": true,
          "internalType": "address",
          "name": "executor",
          "type": "address"
        },
        {
          "indexed": false,
          "internalType": "uint256",
          "name": "timestamp",
          "type": "uint256"
        }
      ],
      "name": "Action",
      "type": "event"
    },
    {
      "inputs": [
        {
          "internalType": "uint256",
          "name": "_projectFee",
          "type": "uint256"
        }
      ],
      "name": "adjustFee",
      "outputs": [],
      "stateMutability": "nonpayable",
      "type": "function"
    },
    {
      "inputs": [
        {
          "internalType": "uint256",
          "name": "",
          "type": "uint256"
        },
        {
          "internalType": "uint256",
          "name": "",
          "type": "uint256"
        }
      ],
      "name": "backersOf",
      "outputs": [
        {
          "internalType": "address",
          "name": "contributor",
          "type": "address"
        },
        {
          "internalType": "uint256",
          "name": "contribution",
          "type": "uint256"
        },
        {
          "internalType": "uint256",
          "name": "timestamp",
          "type": "uint256"
        },
        {
          "internalType": "bool",
          "name": "refunded",
          "type": "bool"
        }
      ],
      "stateMutability": "view",
      "type": "function"
    },
    {
      "inputs": [
        {
          "internalType": "uint256",
          "name": "id",
          "type": "uint256"
        }
      ],
      "name": "cancelProject",
      "outputs": [
        {
          "internalType": "bool",
          "name": "",
          "type": "bool"
        }
      ],
      "stateMutability": "nonpayable",
      "type": "function"
    },
    {
      "inputs": [
        {
          "internalType": "uint256",
          "name": "id",
          "type": "uint256"
        }
      ],
      "name": "contributeToProject",
      "outputs": [
        {
          "internalType": "bool",
          "name": "",
          "type": "bool"
        }
      ],
      "stateMutability": "payable",
      "type": "function"
    },
    {
      "inputs": [],
      "name": "getAllProjects",
      "outputs": [
        {
          "components": [
            {
              "internalType": "uint256",
              "name": "id",
              "type": "uint256"
            },
            {
              "internalType": "address",
              "name": "owner",
              "type": "address"
            },
            {
              "internalType": "string",
              "name": "title",
              "type": "string"
            },
            {
              "internalType": "string",
              "name": "description",
              "type": "string"
            },
            {
              "internalType": "string",
              "name": "imageURL",
              "type": "string"
            },
            {
              "internalType": "uint256",
              "name": "cost",
              "type": "uint256"
            },
            {
              "internalType": "uint256",
              "name": "raised",
              "type": "uint256"
            },
            {
              "internalType": "uint256",
              "name": "timestamp",
              "type": "uint256"
            },
            {
              "internalType": "uint256",
              "name": "expiresAt",
              "type": "uint256"
            },
            {
              "internalType": "uint256",
              "name": "backers",
              "type": "uint256"
            },
            {
              "internalType": "enum FundingHub.StatusEnum",
              "name": "status",
              "type": "uint8"
            }
          ],
          "internalType": "struct FundingHub.ProjectStruct[]",
          "name": "",
          "type": "tuple[]"
        }
      ],
      "stateMutability": "view",
      "type": "function"
    },
    {
      "inputs": [
        {
          "internalType": "uint256",
          "name": "id",
          "type": "uint256"
        }
      ],
      "name": "getProjectBackers",
      "outputs": [
        {
          "components": [
            {
              "internalType": "address",
              "name": "contributor",
              "type": "address"
            },
            {
              "internalType": "uint256",
              "name": "contribution",
              "type": "uint256"
            },
            {
              "internalType": "uint256",
              "name": "timestamp",
              "type": "uint256"
            },
            {
              "internalType": "bool",
              "name": "refunded",
              "type": "bool"
            }
          ],
          "internalType": "struct FundingHub.BackerStruct[]",
          "name": "",
          "type": "tuple[]"
        }
      ],
      "stateMutability": "view",
      "type": "function"
    },
    {
      "inputs": [
        {
          "internalType": "uint256",
          "name": "id",
          "type": "uint256"
        }
      ],
      "name": "getProjectDetails",
      "outputs": [
        {
          "components": [
            {
              "internalType": "uint256",
              "name": "id",
              "type": "uint256"
            },
            {
              "internalType": "address",
              "name": "owner",
              "type": "address"
            },
            {
              "internalType": "string",
              "name": "title",
              "type": "string"
            },
            {
              "internalType": "string",
              "name": "description",
              "type": "string"
            },
            {
              "internalType": "string",
              "name": "imageURL",
              "type": "string"
            },
            {
              "internalType": "uint256",
              "name": "cost",
              "type": "uint256"
            },
            {
              "internalType": "uint256",
              "name": "raised",
              "type": "uint256"
            },
            {
              "internalType": "uint256",
              "name": "timestamp",
              "type": "uint256"
            },
            {
              "internalType": "uint256",
              "name": "expiresAt",
              "type": "uint256"
            },
            {
              "internalType": "uint256",
              "name": "backers",
              "type": "uint256"
            },
            {
              "internalType": "enum FundingHub.StatusEnum",
              "name": "status",
              "type": "uint8"
            }
          ],
          "internalType": "struct FundingHub.ProjectStruct",
          "name": "",
          "type": "tuple"
        }
      ],
      "stateMutability": "view",
      "type": "function"
    },
    {
      "inputs": [],
      "name": "hubBalance",
      "outputs": [
        {
          "internalType": "uint256",
          "name": "",
          "type": "uint256"
        }
      ],
      "stateMutability": "view",
      "type": "function"
    },
    {
      "inputs": [],
      "name": "hubOwner",
      "outputs": [
        {
          "internalType": "address",
          "name": "",
          "type": "address"
        }
      ],
      "stateMutability": "view",
      "type": "function"
    },
    {
      "inputs": [],
      "name": "hubStats",
      "outputs": [
        {
          "internalType": "uint256",
          "name": "totalProjects",
          "type": "uint256"
        },
        {
          "internalType": "uint256",
          "name": "totalBacking",
          "type": "uint256"
        },
        {
          "internalType": "uint256",
          "name": "totalDonations",
          "type": "uint256"
        }
      ],
      "stateMutability": "view",
      "type": "function"
    },
    {
      "inputs": [
        {
          "internalType": "uint256",
          "name": "id",
          "type": "uint256"
        },
        {
          "internalType": "string",
          "name": "title",
          "type": "string"
        },
        {
          "internalType": "string",
          "name": "description",
          "type": "string"
        },
        {
          "internalType": "string",
          "name": "imageURL",
          "type": "string"
        },
        {
          "internalType": "uint256",
          "name": "expiresAt",
          "type": "uint256"
        }
      ],
      "name": "modifyProject",
      "outputs": [
        {
          "internalType": "bool",
          "name": "",
          "type": "bool"
        }
      ],
      "stateMutability": "nonpayable",
      "type": "function"
    },
    {
      "inputs": [
        {
          "internalType": "uint256",
          "name": "id",
          "type": "uint256"
        }
      ],
      "name": "payoutProject",
      "outputs": [
        {
          "internalType": "bool",
          "name": "",
          "type": "bool"
        }
      ],
      "stateMutability": "nonpayable",
      "type": "function"
    },
    {
      "inputs": [],
      "name": "projectCount",
      "outputs": [
        {
          "internalType": "uint256",
          "name": "",
          "type": "uint256"
        }
      ],
      "stateMutability": "view",
      "type": "function"
    },
    {
      "inputs": [
        {
          "internalType": "uint256",
          "name": "",
          "type": "uint256"
        }
      ],
      "name": "projectExist",
      "outputs": [
        {
          "internalType": "bool",
          "name": "",
          "type": "bool"
        }
      ],
      "stateMutability": "view",
      "type": "function"
    },
    {
      "inputs": [],
      "name": "projectFee",
      "outputs": [
        {
          "internalType": "uint256",
          "name": "",
          "type": "uint256"
        }
      ],
      "stateMutability": "view",
      "type": "function"
    },
    {
      "inputs": [
        {
          "internalType": "uint256",
          "name": "",
          "type": "uint256"
        }
      ],
      "name": "projects",
      "outputs": [
        {
          "internalType": "uint256",
          "name": "id",
          "type": "uint256"
        },
        {
          "internalType": "address",
          "name": "owner",
          "type": "address"
        },
        {
          "internalType": "string",
          "name": "title",
          "type": "string"
        },
        {
          "internalType": "string",
          "name": "description",
          "type": "string"
        },
        {
          "internalType": "string",
          "name": "imageURL",
          "type": "string"
        },
        {
          "internalType": "uint256",
          "name": "cost",
          "type": "uint256"
        },
        {
          "internalType": "uint256",
          "name": "raised",
          "type": "uint256"
        },
        {
          "internalType": "uint256",
          "name": "timestamp",
          "type": "uint256"
        },
        {
          "internalType": "uint256",
          "name": "expiresAt",
          "type": "uint256"
        },
        {
          "internalType": "uint256",
          "name": "backers",
          "type": "uint256"
        },
        {
          "internalType": "enum FundingHub.StatusEnum",
          "name": "status",
          "type": "uint8"
        }
      ],
      "stateMutability": "view",
      "type": "function"
    },
    {
      "inputs": [
        {
          "internalType": "address",
          "name": "",
          "type": "address"
        },
        {
          "internalType": "uint256",
          "name": "",
          "type": "uint256"
        }
      ],
      "name": "projectsOf",
      "outputs": [
        {
          "internalType": "uint256",
          "name": "id",
          "type": "uint256"
        },
        {
          "internalType": "address",
          "name": "owner",
          "type": "address"
        },
        {
          "internalType": "string",
          "name": "title",
          "type": "string"
        },
        {
          "internalType": "string",
          "name": "description",
          "type": "string"
        },
        {
          "internalType": "string",
          "name": "imageURL",
          "type": "string"
        },
        {
          "internalType": "uint256",
          "name": "cost",
          "type": "uint256"
        },
        {
          "internalType": "uint256",
          "name": "raised",
          "type": "uint256"
        },
        {
          "internalType": "uint256",
          "name": "timestamp",
          "type": "uint256"
        },
        {
          "internalType": "uint256",
          "name": "expiresAt",
          "type": "uint256"
        },
        {
          "internalType": "uint256",
          "name": "backers",
          "type": "uint256"
        },
        {
          "internalType": "enum FundingHub.StatusEnum",
          "name": "status",
          "type": "uint8"
        }
      ],
      "stateMutability": "view",
      "type": "function"
    },
    {
      "inputs": [
        {
          "internalType": "uint256",
          "name": "id",
          "type": "uint256"
        }
      ],
      "name": "requestProjectRefund",
      "outputs": [
        {
          "internalType": "bool",
          "name": "",
          "type": "bool"
        }
      ],
      "stateMutability": "nonpayable",
      "type": "function"
    },
    {
      "inputs": [
        {
          "internalType": "string",
          "name": "title",
          "type": "string"
        },
        {
          "internalType": "string",
          "name": "description",
          "type": "string"
        },
        {
          "internalType": "string",
          "name": "imageURL",
          "type": "string"
        },
        {
          "internalType": "uint256",
          "name": "cost",
          "type": "uint256"
        },
        {
          "internalType": "uint256",
          "name": "expiresAt",
          "type": "uint256"
        }
      ],
      "name": "startProject",
      "outputs": [
        {
          "internalType": "bool",
          "name": "",
          "type": "bool"
        }
      ],
      "stateMutability": "nonpayable",
      "type": "function"
    }
  ],
  "bytecode": "0x608060405234801561001057600080fd5b50604051620026e2380380620026e28339810160408190526100319161004b565b600080546001600160a01b03191633179055600155610064565b60006020828403121561005d57600080fd5b5051919050565b61266e80620000746000396000f3fe6080604052600436106101145760003560e01c8063939f69c9116100a0578063c079c31811610064578063c079c3181461035e578063d58f2f2714610380578063dc20500b14610396578063e793997e146103b6578063f9285aa0146103cc57600080fd5b8063939f69c9146102a65780639c7eb413146102b9578063ad70ca1a146102f1578063b04cee8f14610311578063bb8c5e9e1461033e57600080fd5b80635f8439e3116100e75780635f8439e3146101cd5780636c51d4b8146101fa57806380d03829146102345780638593054b146102565780638e5556321461028657600080fd5b8063107046bd1461011957806324941147146101595780632888d0171461018957806336fbad26146101a9575b600080fd5b34801561012557600080fd5b50610139610134366004611fe6565b610418565b6040516101509b9a99989796959493929190612084565b60405180910390f35b34801561016557600080fd5b50610179610174366004611fe6565b610627565b6040519015158152602001610150565b34801561019557600080fd5b506101796101a4366004611fe6565b6107a9565b3480156101b557600080fd5b506101bf60025481565b604051908152602001610150565b3480156101d957600080fd5b506101ed6101e8366004611fe6565b6108e3565b60405161015091906121dd565b34801561020657600080fd5b5060045460055460065461021992919083565b60408051938452602084019290925290820152606001610150565b34801561024057600080fd5b50610249610bc3565b60405161015091906121f7565b34801561026257600080fd5b50610179610271366004611fe6565b600a6020526000908152604090205460ff1681565b34801561029257600080fd5b506101396102a1366004612259565b610e5e565b6101796102b4366004611fe6565b610eb1565b3480156102c557600080fd5b506000546102d9906001600160a01b031681565b6040516001600160a01b039091168152602001610150565b3480156102fd57600080fd5b5061017961030c366004611fe6565b61127b565b34801561031d57600080fd5b5061033161032c366004611fe6565b61136a565b6040516101509190612291565b34801561034a57600080fd5b506101796103593660046123a3565b61140c565b34801561036a57600080fd5b5061037e610379366004611fe6565b611684565b005b34801561038c57600080fd5b506101bf60015481565b3480156103a257600080fd5b506101796103b136600461243d565b6116d9565b3480156103c257600080fd5b506101bf60035481565b3480156103d857600080fd5b506103ec6103e73660046124d7565b611b3d565b604080516001600160a01b03909516855260208501939093529183015215156060820152608001610150565b6007818154811061042857600080fd5b60009182526020909120600b90910201805460018201546002830180549294506001600160a01b03909116929161045e906124f9565b80601f016020809104026020016040519081016040528092919081815260200182805461048a906124f9565b80156104d75780601f106104ac576101008083540402835291602001916104d7565b820191906000526020600020905b8154815290600101906020018083116104ba57829003601f168201915b5050505050908060030180546104ec906124f9565b80601f0160208091040260200160405190810160405280929190818152602001828054610518906124f9565b80156105655780601f1061053a57610100808354040283529160200191610565565b820191906000526020600020905b81548152906001019060200180831161054857829003601f168201915b50505050509080600401805461057a906124f9565b80601f01602080910402602001604051908101604052809291908181526020018280546105a6906124f9565b80156105f35780601f106105c8576101008083540402835291602001916105f3565b820191906000526020600020905b8154815290600101906020018083116105d657829003601f168201915b50505060058401546006850154600786015460088701546009880154600a9098015496979396929550909350919060ff168b565b6000806007838154811061063d5761063d612534565b60009182526020909120600a600b90920201015460ff1660048111156106655761066561204c565b146106b25760405162461bcd60e51b8152602060048201526018602482015277141c9bda9958dd081b9bc81b1bdb99d95c881bdc195b995960421b60448201526064015b60405180910390fd5b600782815481106106c5576106c5612534565b60009182526020909120600b90910201600101546001600160a01b031633146107005760405162461bcd60e51b81526004016106a99061254a565b60036007838154811061071557610715612534565b60009182526020909120600a600b9092020101805460ff191660018360048111156107425761074261204c565b021790555061075082611b90565b604080518381526060602082018190526010908201526f141493d29150d50810d05390d153115160821b6080820152428183015290513391600080516020612619833981519152919081900360a00190a2506001919050565b60006002600783815481106107c0576107c0612534565b60009182526020909120600a600b90920201015460ff1660048111156107e8576107e861204c565b141580610830575060036007838154811061080557610805612534565b60009182526020909120600a600b90920201015460ff16600481111561082d5761082d61204c565b14155b61088b5760405162461bcd60e51b815260206004820152602660248201527f50726f6a656374206e6f74206d61726b656420617320726576657274206f722060448201526564656c65746560d01b60648201526084016106a9565b6002600783815481106108a0576108a0612534565b60009182526020909120600a600b9092020101805460ff191660018360048111156108cd576108cd61204c565b02179055506108db82611b90565b506001919050565b6108eb611eda565b6000828152600a602052604090205460ff1661093d5760405162461bcd60e51b8152602060048201526011602482015270141c9bda9958dd081b9bdd08199bdd5b99607a1b60448201526064016106a9565b6007828154811061095057610950612534565b90600052602060002090600b020160405180610160016040529081600082015481526020016001820160009054906101000a90046001600160a01b03166001600160a01b03166001600160a01b031681526020016002820180546109b3906124f9565b80601f01602080910402602001604051908101604052809291908181526020018280546109df906124f9565b8015610a2c5780601f10610a0157610100808354040283529160200191610a2c565b820191906000526020600020905b815481529060010190602001808311610a0f57829003601f168201915b50505050508152602001600382018054610a45906124f9565b80601f0160208091040260200160405190810160405280929190818152602001828054610a71906124f9565b8015610abe5780601f10610a9357610100808354040283529160200191610abe565b820191906000526020600020905b815481529060010190602001808311610aa157829003601f168201915b50505050508152602001600482018054610ad7906124f9565b80601f0160208091040260200160405190810160405280929190818152602001828054610b03906124f9565b8015610b505780601f10610b2557610100808354040283529160200191610b50565b820191906000526020600020905b815481529060010190602001808311610b3357829003601f168201915b505050918352505060058201546020820152600682015460408201526007820154606082015260088201546080820152600982015460a0820152600a82015460c09091019060ff166004811115610ba957610ba961204c565b6004811115610bba57610bba61204c565b90525092915050565b60606007805480602002602001604051908101604052809291908181526020016000905b82821015610e555760008481526020908190206040805161016081018252600b86029092018054835260018101546001600160a01b03169383019390935260028301805492939291840191610c3b906124f9565b80601f0160208091040260200160405190810160405280929190818152602001828054610c67906124f9565b8015610cb45780601f10610c8957610100808354040283529160200191610cb4565b820191906000526020600020905b815481529060010190602001808311610c9757829003601f168201915b50505050508152602001600382018054610ccd906124f9565b80601f0160208091040260200160405190810160405280929190818152602001828054610cf9906124f9565b8015610d465780601f10610d1b57610100808354040283529160200191610d46565b820191906000526020600020905b815481529060010190602001808311610d2957829003601f168201915b50505050508152602001600482018054610d5f906124f9565b80601f0160208091040260200160405190810160405280929190818152602001828054610d8b906124f9565b8015610dd85780601f10610dad57610100808354040283529160200191610dd8565b820191906000526020600020905b815481529060010190602001808311610dbb57829003601f168201915b505050918352505060058201546020820152600682015460408201526007820154606082015260088201546080820152600982015460a0820152600a82015460c09091019060ff166004811115610e3157610e3161204c565b6004811115610e4257610e4261204c565b8152505081526020019060010190610be7565b50505050905090565b60086020528160005260406000208181548110610e7a57600080fd5b60009182526020909120600b90910201805460018201546002830180549295506001600160a01b0390911693509061045e906124f9565b6000803411610f025760405162461bcd60e51b815260206004820152601f60248201527f4574686572206d7573742062652067726561746572207468616e207a65726f0060448201526064016106a9565b6000828152600a602052604090205460ff16610f545760405162461bcd60e51b8152602060048201526011602482015270141c9bda9958dd081b9bdd08199bdd5b99607a1b60448201526064016106a9565b600060078381548110610f6957610f69612534565b60009182526020909120600a600b90920201015460ff166004811115610f9157610f9161204c565b14610fd95760405162461bcd60e51b8152602060048201526018602482015277141c9bda9958dd081b9bc81b1bdb99d95c881bdc195b995960421b60448201526064016106a9565b600160046001016000828254610fef919061258d565b90915550506006805434919060009061100990849061258d565b92505081905550346007838154811061102457611024612534565b90600052602060002090600b02016006016000828254611044919061258d565b9250508190555060016007838154811061106057611060612534565b90600052602060002090600b02016009016000828254611080919061258d565b9091555050600082815260096020908152604080832081516080808201845233808352348387019081524284870181815260608087018b8152885460018082018b55998d529b8b902097516004909c0290970180546001600160a01b0319166001600160a01b03909c169b909b178b559251968a01969096559451600289015592516003909701805460ff1916971515979097179096558351888152948501829052600e918501919091526d141493d29150d508109050d2d15160921b90840152908201526000805160206126198339815191529060a00160405180910390a26007828154811061117357611173612534565b90600052602060002090600b0201600501546007838154811061119857611198612534565b90600052602060002090600b0201600601541061123b576001600783815481106111c4576111c4612534565b60009182526020909120600a600b9092020101805460ff191660018360048111156111f1576111f161204c565b02179055506007828154811061120957611209612534565b90600052602060002090600b0201600601546003600082825461122c919061258d565b909155506108db905082611cfe565b6007828154811061124e5761124e612534565b90600052602060002090600b02016008015442106108db576002600783815481106108a0576108a0612534565b600060016007838154811061129257611292612534565b60009182526020909120600a600b90920201015460ff1660048111156112ba576112ba61204c565b146112fe5760405162461bcd60e51b8152602060048201526014602482015273141c9bda9958dd081b9bdd08185c1c1c9bdd995960621b60448201526064016106a9565b6007828154811061131157611311612534565b60009182526020909120600b90910201600101546001600160a01b031633148061134557506000546001600160a01b031633145b6113615760405162461bcd60e51b81526004016106a99061254a565b6108db82611cfe565b606060096000838152602001908152602001600020805480602002602001604051908101604052809291908181526020016000905b82821015611401576000848152602090819020604080516080810182526004860290920180546001600160a01b03168352600180820154848601526002820154928401929092526003015460ff1615156060830152908352909201910161139f565b505050509050919050565b60006007868154811061142157611421612534565b60009182526020909120600b90910201600101546001600160a01b0316331461145c5760405162461bcd60e51b81526004016106a99061254a565b60008551116114a55760405162461bcd60e51b81526020600482015260156024820152745469746c652063616e6e6f7420626520656d70747960581b60448201526064016106a9565b60008451116114f65760405162461bcd60e51b815260206004820152601b60248201527f4465736372697074696f6e2063616e6e6f7420626520656d707479000000000060448201526064016106a9565b60008351116115425760405162461bcd60e51b8152602060048201526018602482015277496d61676555524c2063616e6e6f7420626520656d70747960401b60448201526064016106a9565b846007878154811061155657611556612534565b90600052602060002090600b0201600201908051906020019061157a929190611f4d565b50836007878154811061158f5761158f612534565b90600052602060002090600b020160030190805190602001906115b3929190611f4d565b5082600787815481106115c8576115c8612534565b90600052602060002090600b020160040190805190602001906115ec929190611f4d565b50816007878154811061160157611601612534565b90600052602060002090600b020160080181905550336001600160a01b031660008051602061261983398151915287426040516116709291909182526060602083018190526010908301526f141493d29150d5081353d1125192515160821b6080830152604082015260a00190565b60405180910390a250600195945050505050565b6000546001600160a01b031633146116d45760405162461bcd60e51b81526020600482015260136024820152724f776e6572207265736572766564206f6e6c7960681b60448201526064016106a9565b600155565b6000808651116117235760405162461bcd60e51b81526020600482015260156024820152745469746c652063616e6e6f7420626520656d70747960581b60448201526064016106a9565b60008551116117745760405162461bcd60e51b815260206004820152601b60248201527f4465736372697074696f6e2063616e6e6f7420626520656d707479000000000060448201526064016106a9565b60008451116117c05760405162461bcd60e51b8152602060048201526018602482015277496d61676555524c2063616e6e6f7420626520656d70747960401b60448201526064016106a9565b600083116118065760405162461bcd60e51b8152602060048201526013602482015272436f73742063616e6e6f74206265207a65726f60681b60448201526064016106a9565b61180e611eda565b600254815233602080830191825260408301898152606084018990526080840188905260a084018790524260e085015261010084018690526007805460018101825560009190915284517fa66cc928b5edb82af9bd49922954155ab7b0942694bea4ce44661d9a8736c688600b90920291820190815593517fa66cc928b5edb82af9bd49922954155ab7b0942694bea4ce44661d9a8736c689820180546001600160a01b0319166001600160a01b03909216919091179055905180518594936118fb937fa66cc928b5edb82af9bd49922954155ab7b0942694bea4ce44661d9a8736c68a01920190611f4d565b5060608201518051611917916003840191602090910190611f4d565b5060808201518051611933916004840191602090910190611f4d565b5060a0820151600582015560c0820151600682015560e0820151600782015561010082015160088201556101208201516009820155610140820151600a8201805460ff1916600183600481111561198c5761198c61204c565b021790555050600280546000908152600a602090815260408083208054600160ff1990911681179091553384526008835281842080548083018255908552938390208751600b909502019384558683015190840180546001600160a01b0319166001600160a01b0390921691909117905585015180518695509293611a1993908501929190910190611f4d565b5060608201518051611a35916003840191602090910190611f4d565b5060808201518051611a51916004840191602090910190611f4d565b5060a0820151600582015560c0820151600682015560e0820151600782015561010082015160088201556101208201516009820155610140820151600a8201805460ff19166001836004811115611aaa57611aaa61204c565b02179055505050600160046000016000828254611ac7919061258d565b909155505060028054339160008051602061261983398151915291906000611aee836125a5565b9091555060408051918252606060208301819052600f908301526e141493d29150d50814d51054951151608a1b6080830152429082015260a00160405180910390a25060019695505050505050565b60096020528160005260406000208181548110611b5957600080fd5b600091825260209091206004909102018054600182015460028301546003909301546001600160a01b039092169450925060ff1684565b60005b600082815260096020526040902054811015611cfa576000828152600960205260408120805483908110611bc957611bc9612534565b6000918252602080832060049092029091015485835260099091526040822080546001600160a01b0390921693509084908110611c0857611c08612534565b90600052602060002090600402016001015490506001600960008681526020019081526020016000208481548110611c4257611c42612534565b906000526020600020906004020160030160006101000a81548160ff02191690831515021790555042600960008681526020019081526020016000208481548110611c8f57611c8f612534565b906000526020600020906004020160020181905550611cae8282611e75565b600160046001016000828254611cc491906125c0565b909155505060068054829190600090611cde9084906125c0565b9250508190555050508080611cf2906125a5565b915050611b93565b5050565b600060078281548110611d1357611d13612534565b90600052602060002090600b02016006015490506000606460015483611d3991906125d7565b611d4391906125f6565b9050600460078481548110611d5a57611d5a612534565b60009182526020909120600a600b9092020101805460ff19166001836004811115611d8757611d8761204c565b0217905550611dce60078481548110611da257611da2612534565b600091825260209091206001600b9092020101546001600160a01b0316611dc983856125c0565b611e75565b600054611de4906001600160a01b031682611e75565b60078381548110611df757611df7612534565b90600052602060002090600b02016006015460036000828254611e1a91906125c0565b9091555050604080518481526060602082018190526010908201526f141493d29150d508141052510813d55560821b6080820152428183015290513391600080516020612619833981519152919081900360a00190a2505050565b6000826001600160a01b03168260405160006040518083038185875af1925050503d8060008114611ec2576040519150601f19603f3d011682016040523d82523d6000602084013e611ec7565b606091505b5050905080611ed557600080fd5b505050565b6040518061016001604052806000815260200160006001600160a01b03168152602001606081526020016060815260200160608152602001600081526020016000815260200160008152602001600081526020016000815260200160006004811115611f4857611f4861204c565b905290565b828054611f59906124f9565b90600052602060002090601f016020900481019282611f7b5760008555611fc1565b82601f10611f9457805160ff1916838001178555611fc1565b82800160010185558215611fc1579182015b82811115611fc1578251825591602001919060010190611fa6565b50611fcd929150611fd1565b5090565b5b80821115611fcd5760008155600101611fd2565b600060208284031215611ff857600080fd5b5035919050565b6000815180845260005b8181101561202557602081850181015186830182015201612009565b81811115612037576000602083870101525b50601f01601f19169290920160200192915050565b634e487b7160e01b600052602160045260246000fd5b6005811061208057634e487b7160e01b600052602160045260246000fd5b9052565b8b81526001600160a01b038b166020820152610160604082018190526000906120af8382018d611fff565b905082810360608401526120c3818c611fff565b905082810360808401526120d7818b611fff565b9150508760a08301528660c08301528560e08301528461010083015283610120830152612108610140830184612062565b9c9b505050505050505050505050565b600061016082518452602083015161213b60208601826001600160a01b03169052565b50604083015181604086015261215382860182611fff565b9150506060830151848203606086015261216d8282611fff565b915050608083015184820360808601526121878282611fff565b91505060a083015160a085015260c083015160c085015260e083015160e0850152610100808401518186015250610120808401518186015250610140808401516121d382870182612062565b5090949350505050565b6020815260006121f06020830184612118565b9392505050565b6000602080830181845280855180835260408601915060408160051b870101925083870160005b8281101561224c57603f1988860301845261223a858351612118565b9450928501929085019060010161221e565b5092979650505050505050565b6000806040838503121561226c57600080fd5b82356001600160a01b038116811461228357600080fd5b946020939093013593505050565b602080825282518282018190526000919060409081850190868401855b828110156122f357815180516001600160a01b0316855286810151878601528581015186860152606090810151151590850152608090930192908501906001016122ae565b5091979650505050505050565b634e487b7160e01b600052604160045260246000fd5b600082601f83011261232757600080fd5b813567ffffffffffffffff8082111561234257612342612300565b604051601f8301601f19908116603f0116810190828211818310171561236a5761236a612300565b8160405283815286602085880101111561238357600080fd5b836020870160208301376000602085830101528094505050505092915050565b600080600080600060a086880312156123bb57600080fd5b85359450602086013567ffffffffffffffff808211156123da57600080fd5b6123e689838a01612316565b955060408801359150808211156123fc57600080fd5b61240889838a01612316565b9450606088013591508082111561241e57600080fd5b5061242b88828901612316565b95989497509295608001359392505050565b600080600080600060a0868803121561245557600080fd5b853567ffffffffffffffff8082111561246d57600080fd5b61247989838a01612316565b9650602088013591508082111561248f57600080fd5b61249b89838a01612316565b955060408801359150808211156124b157600080fd5b506124be88828901612316565b9598949750949560608101359550608001359392505050565b600080604083850312156124ea57600080fd5b50508035926020909101359150565b600181811c9082168061250d57607f821691505b6020821081141561252e57634e487b7160e01b600052602260045260246000fd5b50919050565b634e487b7160e01b600052603260045260246000fd5b602080825260139082015272556e617574686f72697a656420456e7469747960681b604082015260600190565b634e487b7160e01b600052601160045260246000fd5b600082198211156125a0576125a0612577565b500190565b60006000198214156125b9576125b9612577565b5060010190565b6000828210156125d2576125d2612577565b500390565b60008160001904831182151516156125f1576125f1612577565b500290565b60008261261357634e487b7160e01b600052601260045260246000fd5b50049056feaee8e5d3bbb2f71a951b5632cee20f7ac487b9f8ab4f66a236f7694b13af7c6aa264697066735822122082c7c03c558711cc3b554f4f51be13f4cd0905362e9224765f0ef56c5300bd6e64736f6c634300080b0033",
  "linkReferences": {},
  "deployedLinkReferences": {}
}